:100000000C9462000C948A000C948A000C948A0070
:100010000C948A000C948A000C948A000C948A0038
:100020000C948A000C948A000C948A000C948A0028
:100030000C948A000C948A000C948A000C948A0018
:100040000C9441060C948A000C94B1060C948B0617
:100050000C948A000C948A000C948A000C948A00F8
:100060000C948A000C948A000000000024002700F1
:100070002A0000000000250028002B0000000008D6
:10008000000201000003040700000000000000005F
:1000900000000000230026002900040404040404D6
:1000A0000404020202020202030303030303010227
:1000B00004081020408001020408102001020408F6
:1000C0001020E30611241FBECFEFD8E0DEBFCDBF66
:1000D00011E0A0E0B1E0EAE1F7E102C005900D9285
:1000E000A235B107D9F722E0A2E5B1E001C01D9227
:1000F000A332B207E1F710E0C2E6D0E004C02197D6
:10010000FE010E94850BC136D107C9F70E944D0739
:100110000C948B0B0C940000CF92DF92EF92FF9225
:10012000CF93DF93B0911702A0E08111AB2F8091A4
:10013000180290E0880F991FAC0140575F4FC090A4
:100140001D02D0901E02E0901F02F090200230E0CD
:1001500020E0FA01C591D491E881B90190E080E0F6
:10016000EB23EA130AC02F5F3F4F6C157D058E0508
:100170009F0578F36FEF7FEFCB01DF91CF91FF9079
:10018000EF90DF90CF900895FC01538D448D252F83
:1001900030E0842F90E0821B930B541710F0CF9621
:1001A000089501970895FC01918D828D981761F053
:1001B000A28DAE0FBF2FB11D5D968C91928D9F5F6A
:1001C0009F73928F90E008958FEF9FEF0895FC0149
:1001D000918D828D981731F0828DE80FF11D858DFC
:1001E00090E008958FEF9FEF0895FC01918D228D8F
:1001F000892F90E0805C9F4F821B91098F73992714
:100200000895FC01A48DA80FB92FB11DA35ABF4FAB
:100210002C91848D90E001968F739927848FA68905
:10022000B7892C93A089B1898C91837080648C9359
:10023000938D848D981306C00288F389E02D808108
:100240008F7D80830895EF92FF920F931F93CF933A
:10025000DF93EC0181E0888F9B8D8C8D98131AC001
:10026000E889F989808185FF15C09FB7F894EE89E8
:10027000FF896083E889F989808183708064808345
:100280009FBF81E090E0DF91CF911F910F91FF9090
:10029000EF900895F62E0B8D10E00F5F1F4F0F7338
:1002A0001127E02E8C8D8E110CC00FB607FCFACFF3
:1002B000E889F989808185FFF5CFCE010E9401018F
:1002C000F1CFEB8DEC0FFD2FF11DE35AFF4FF082C4
:1002D0009FB7F8940B8FEA89FB8980818062CFCF2A
:1002E000CF93DF93EC01888D8823B9F0AA89BB896D
:1002F000E889F9898C9185FD03C0808186FD0DC058
:100300000FB607FCF7CF8C9185FFF2CF808185FF78
:10031000EDCFCE010E940101E9CFDF91CF91089589
:100320008BE591E00E94F50021E0892B09F420E0A3
:10033000822F089580E090E0892B29F00E9490019F
:1003400081110C940000089590E0FC01E458FF4FE7
:100350002491FC01E255FF4F3491FC01E656FF4F1A
:10036000E491EE23C9F0222339F0233001F1A8F4FF
:10037000213019F1223029F1F0E0EE0FFF1FEE5885
:10038000FF4FA591B4918FB7F894EC91611126C0FD
:1003900030953E233C938FBF08952730A9F0283035
:1003A000C9F0243049F7809180008F7D03C080918F
:1003B00080008F7780938000DFCF84B58F7784BDF6
:1003C000DBCF84B58F7DFBCF8091B0008F7780939A
:1003D000B000D2CF8091B0008F7DF9CF3E2BDACF25
:1003E000CF93DF9390E0FC01E255FF4F24918656B6
:1003F0009F4FFC0184918823D1F090E0880F991FD2
:10040000FC01E859FF4FA591B491FC01EE58FF4F54
:10041000C591D491623071F49FB7F8943C91822FCA
:10042000809583238C93E8812E2B28839FBFDF91B7
:10043000CF9108958FB7F894EC912E2B2C938FBF0A
:10044000F6CF3FB7F8948091530190915401A09159
:100450005501B091560126B5A89B05C02F3F19F054
:100460000196A11DB11D3FBFBA2FA92F982F882734
:10047000BC01CD01620F711D811D911D42E0660F0F
:10048000771F881F991F4A95D1F708958F929F92E1
:10049000AF92BF92CF92DF92EF92FF924B015C013D
:1004A0000E9421026B017C010E9421026C197D09CE
:1004B0008E099F09683E734081059105A8F321E0EC
:1004C000821A9108A108B10888EEC80E83E0D81EF0
:1004D000E11CF11C81149104A104B10429F7FF90DF
:1004E000EF90DF90CF90BF90AF909F908F90089546
:1004F000CF92DF92EF92FF920F931F93CF93DF93F0
:10050000CDB7DEB7C054D1400FB6F894DEBF0FBEF2
:10051000CDBF2FB7F8948091570190915801A091C9
:100520005901B0915A012FBF4091190250911A02FE
:1005300060911B0270911C028C019D01041B150B24
:10054000260B370BB901A801403D574061057105E5
:1005500090F480912102C05CDE4F0FB6F894DEBFAC
:100560000FBECDBFDF91CF911F910F91FF90EF9004
:10057000DF90CF9008958093190290931A02A09370
:100580001B02B0931C0210921402109213021092DC
:100590001202109211021092100262E08091150274
:1005A0000E94F00161E070E080E090E00E9446026D
:1005B00061E0809115020E94F00160E080911502D7
:1005C0000E94A401809116028551823020F58BE2B1
:1005D00091E10197F1F762E0809115020E94F0012C
:1005E0008091220290E08230910538F0880F991FA7
:1005F000880F991F05970197F1F7F89480E00E9402
:100600008C006F3F7F4F8F4F9F4F61F410922102FC
:10061000789480E0A0CF64E170E080E090E00E94F8
:100620004602D9CF81E00E948C006F3F7F4F8F4FF1
:100630009F4F61F38E010F5F1F4F6E018FEBC81A42
:100640008EEFD80A780180E00E948C00F701608369
:1006500071838283938381E00E948C00F70164831D
:10066000758386839783F8E0EF0EF11CEC14FD048C
:1006700051F7789430E020E0F801C080D180E2802A
:10068000F3804481558166817781FFEFCF16DF06C5
:10069000EF06FF0631F04F3F8FEF580768077807E6
:1006A00019F410922102B5CFF90183E0F595E79591
:1006B0008A95E1F7E05FFD4F8081880FC416D5066B
:1006C000E606F70610F180832F5F3F4F085F1F4F4C
:1006D0002832310589F64091140220911002809150
:1006E0001102280F3327331F80911202280F311D6A
:1006F00080911302820F932F911D99274817190695
:1007000081F681E08093210226CF8160DCCFAF9219
:10071000BF92CF92DF92EF92FF920F931F93CF93EE
:10072000DF936C017B018B01040F151FEB015E0150
:10073000AE18BF08C017D10759F06991D601ED91E5
:10074000FC910190F081E02DC6010995892B79F784
:10075000C501DF91CF911F910F91FF90EF90DF9036
:10076000CF90BF90AF900895089590E080E00895F5
:10077000FC0101900020E9F73197AF01481B590BAC
:10078000BC0188EF91E00C9487038F929F92AF9207
:10079000BF920F931F93CF93DF93CDB7DEB7A1978F
:1007A0000FB6F894DEBF0FBECDBF19A2423008F4D9
:1007B0004AE08E010F5D1F4F842E912CB12CA12C8D
:1007C000A50194010E94630BE62FB901CA01EA302A
:1007D000F4F4E05DD801EE938D01232B242B252B1F
:1007E00079F790E080E0109719F0CD010E94B803EE
:1007F000A1960FB6F894DEBF0FBECDBFDF91CF91AB
:100800001F910F91BF90AF909F908F900895E95CDA
:10081000E1CFCF93DF93EC0160E08E810E94A401D1
:1008200061E08E810E94A40160E08E810E94A4019B
:100830008BE891E00197F1F7DF91CF910895CF9286
:10084000DF92EF92FF920F931F93CF93DF936C0190
:100850007C0187E0E80EF11CD0E0C0E0062F10E03C
:10086000B8010C2E02C0759567950A94E2F7617085
:10087000F70181917F010E94A4012196C430D10526
:1008800079F7C601DF91CF911F910F91FF90EF9003
:10089000DF90CF900C940904CF92DF92EF92FF92F9
:1008A0000F931F93CF93DF93EC01F62E642F8C816F
:1008B0000E94A4018D818F3F19F060E00E94A40185
:1008C0000F2D10E08F8584FF25C06E0187E0C80ED4
:1008D000D11CF12CE12CB8010E2C02C07595679546
:1008E0000A94E2F76170F60181916F010E94A40100
:1008F000FFEFEF1AFF0A88E0E816F10461F7CE0176
:10090000DF91CF911F910F91FF90EF90DF90CF90EB
:100910000C940904B80184E0759567958A95E1F710
:10092000CE010E941F046F2DCE01DF91CF911F9148
:100930000F91FF90EF90DF90CF900C941F0440E058
:10094000682F88EF91E00C944C0481E00E949F0492
:100950008BE39FE10197F1F70895CF93DF93823006
:1009600029F49091070298609093070280930B02FC
:1009700010920C0280E480930D0280E180930E02BD
:1009800080E580930F0261E08091FC010E94F001FC
:100990008091FD018F3F19F061E00E94F00161E05C
:1009A0008091FE010E94F001C8EFD1E09E01285F16
:1009B00031408091070284FD0BC084E090E02196D5
:1009C0002817390744F461E08E810E94F001EECFD0
:1009D00088E090E0F4CF8BE39DE00197F1F760E0D1
:1009E0008091FC010E94A40160E08091FE010E94C0
:1009F000A4018091FD018F3F19F060E00E94A401E5
:100A00008091070284FD34C063E088EF91E00E948A
:100A10001F04CBE4D6E4CE010197F1F763E088EF41
:100A200091E00E941F042197F1F763E088EF91E0C5
:100A30000E941F0483E592E00197F1F762E088EFDE
:100A400091E00E941F048091070280620E949F042F
:100A500084E0809308028CE00E949F040E94A50419
:100A600082E08093090286E0DF91CF910C949F048D
:100A700080620E949F048BE496E40197F1F78091D5
:100A8000070280620E949F0483E592E00197F1F7DC
:100A90008091070280620E949F04D5CF90910B0243
:100AA000691710F06FEF690FE62FF0E0E850FE4F86
:100AB0009489890F80680C949F0441E00E944C0443
:100AC00081E090E008954F925F926F927F928F92B3
:100AD0009F92AF92BF92CF92DF92EF92FF920F93CD
:100AE0001F93CF936B017C01742EAC019B010E947C
:100AF0005E0B882399F08EE191E0CF911F910F91C9
:100B0000FF90EF90DF90CF90BF90AF909F908F902D
:100B10007F906F905F904F900C94B80346015701FF
:100B2000E894B7F82FEF3FEF4FE75FE7C501B40157
:100B30000E945E0B81110DC02FEF3FEF4FE75FE783
:100B4000C501B4010E94940918161CF482E291E0D8
:100B5000D4CF2FEF3FEF4FE75FE4C701B6010E940C
:100B6000EC0A18161CF486E291E0C7CF2FEF3FEF96
:100B70004FE75FECC701B6010E94940987FDF3CFF0
:100B800020E030E0A901C701B6010E94940910E0FD
:100B900000E087FF0CC041E06DE288EF91E00E9429
:100BA0004C04F7FAF094F7F8F09401E010E0C0E09C
:100BB00060E070E080E09FE37C1641F020E030E0F0
:100BC00040E251E40E949909CF5FF6CFA701960158
:100BD0000E9428094B015C010E940B0A2B013C0179
:100BE0004AE00E94C503080F191FCC23C9F1C301B5
:100BF000B2010E943A0A9B01AC01C501B4010E94F6
:100C000027094B015C0141E06EE288EF91E00E9410
:100C10004C040F5F1F4FC15018F120E030E040E25C
:100C200051E4C501B4010E94F10A2B013C010E946C
:100C30000B0A4B01B12CA12C4AE0C501B4010E9462
:100C4000C503080F191FC501B4010E943A0A9B0190
:100C5000AC01C301B2010E9427094B015C01DBCF4B
:100C6000C801CF911F910F91FF90EF90DF90CF902F
:100C7000BF90AF909F908F907F906F905F904F90BC
:100C800008951F920F920FB60F9211242F933F9346
:100C90008F939F93AF93BF93809157019091580189
:100CA000A0915901B0915A013091520123E0230FD4
:100CB0002D3758F50196A11DB11D20935201809347
:100CC000570190935801A0935901B0935A01809114
:100CD000530190915401A0915501B0915601019694
:100CE000A11DB11D8093530190935401A093550110
:100CF000B0935601BF91AF919F918F913F912F91EA
:100D00000F900FBE0F901F90189526E8230F0296A4
:100D1000A11DB11DD2CF1F920F920FB60F921124B9
:100D20002F933F934F935F936F937F938F939F93F3
:100D3000AF93BF93EF93FF938BE591E00E94010186
:100D4000FF91EF91BF91AF919F918F917F916F91A3
:100D50005F914F913F912F910F900FBE0F901F9079
:100D600018951F920F920FB60F9211242F938F9305
:100D70009F93EF93FF93E0916B01F0916C01808161
:100D8000E0917101F091720182FD1BC09081809110
:100D900074018F5F8F7320917501821741F0E0918C
:100DA0007401F0E0E55AFE4F958F80937401FF9136
:100DB000EF919F918F912F910F900FBE0F901F90E9
:100DC00018958081F4CFEBE5F1E01382128288EE72
:100DD00093E0A0E0B0E084839583A683B78384E0AA
:100DE00091E09183808385EC90E09587848784EC03
:100DF00090E09787868780EC90E0918B808B81ECE8
:100E000090E0938B828B82EC90E0958B848B86ECC8
:100E100090E0978B868B118E128E138E148EA0E12C
:100E2000B2E08DE015968C9315978BE016968C9317
:100E30001697EBEBF0E0E4911796EC931797E7EA3F
:100E4000F0E0E4911896EC93189740E85EE360E0D8
:100E500070E01D964D935D936D937C935097E8EFF2
:100E6000F1E01382128286E191E0918380838AE02F
:100E7000848389E0858388E0868385E0878384E0B6
:100E8000808783E0818782E08287138614861586B7
:100E90001686178681E00C94AD04789484B5826040
:100EA00084BD84B5816084BD85B5826085BD85B50E
:100EB000816085BD80916E00816080936E0010928C
:100EC0008100809181008260809381008091810007
:100ED0008160809381008091800081608093800098
:100EE0008091B10084608093B1008091B0008160F6
:100EF0008093B00080917A00846080937A00809122
:100F00007A00826080937A0080917A008160809379
:100F10007A0080917A00806880937A001092C100F4
:100F200061E086E00E94F00161E087E00E94F0014C
:100F300061E08BE00E94F00161E08CE00E94F00132
:100F400062E0809115020E94F0012FB7F894809121
:100F5000570190915801A0915901B0915A012FBFAA
:100F6000805D9740A109B1098093190290931A02FC
:100F7000A0931B02B0931C0287E38093220282E0BD
:100F80000E94AD0460E086E00E94A40160E087E07A
:100F90000E94A40160E08CE00E94A40161E08BE06B
:100FA0000E94A4010E94A50460E080E00E944E051A
:100FB0008AE291E00E94B80360ED77E080E090E083
:100FC0000E9446020E94A50460E080E00E944E0557
:100FD00085E391E00E94B80360ED77E080E090E067
:100FE0000E9446020E94A50460E080E00E944E0537
:100FF00083E491E00E94B80361E080E00E944E0526
:1010000088E491E00E94B80360E08BE00E944E0506
:101010008EE491E00E94B80361E08CE00E944E05EE
:1010200080E591E00E94B803C0E0D0E00E94780221
:10103000882341F0809116028C3009F462C048F494
:101040008B3001F1C12CD12C90ECE92E9FE7F92EC9
:1010500043C085518230B0F710911202612F70E0C9
:10106000762F662766277F7780911302682B90E0A2
:1010700080E00E943A0A2DEC3CEC4CEC5DE30E94CF
:10108000F10A5BC06091120270E090E080E00E9483
:101090003A0A6B017C011091130217FF0AC0AC01E0
:1010A0009B0160E070E080E89FEB0E9427096B01E4
:1010B0007C011F70612F70E090E080E00E943C0A8C
:1010C0002DEC3CEC4CEC5DE30E94F10AA70196018B
:1010D0000E9428096B017C010E947802882351F04C
:1010E000809116028B3030F08D3080F18551823046
:1010F00008F491C0812C912C80ECA82E8FE7B82E9B
:1011000043C010911202612F70E090E080E00E94D5
:101110003A0A6B017C01609113026F7070E090E0FD
:1011200080E00E943C0A2DEC3CEC4CEC5DE30E941C
:10113000F10AA70196010E9428096B017C0117FFA3
:10114000CBCFF7FAF094F7F8F094C6CF6091110284
:1011500070E090E080E00E943C0A2DEC3CEC4CEC0E
:101160005DE30E94F10A4B015C016091100270E0A6
:1011700090E080E00E943C0A9B01AC01C501B401F3
:101180000E9428094B015C0160E085E00E944E0549
:1011900042E0C501B4010E94630561E086E00E945F
:1011A0004E0542E0C701B6010E94630520E030E031
:1011B00048EC51E4C701B6010E94EC0A61E087FDEA
:1011C00060E086E00E94A40120E030E040E252E4CA
:1011D000C501B4010E94940918167CF161E087E012
:1011E0000E94A40161E08BE00E94A40160E08CE019
:1011F0000E94A40160ED77E080E090E00E9446024A
:10120000209709F413CF0E949001882309F40ECF90
:101210000E9400000BCF609110027091110276279E
:101220006727762790E080E00E943A0A2DEC3CEC9C
:101230004CEC5DE30E94F10AA5CF60E087E00E94DC
:10124000A40160E08BE00E94A40161E0D0CF50587F
:10125000BB27AA270E943F090C94B20A0E94A40A45
:1012600038F00E94AB0A20F039F49F3F19F426F4BD
:101270000C94A10A0EF4E095E7FB0C949B0AE92F6D
:101280000E94C30A58F3BA176207730784079507C9
:1012900020F079F4A6F50C94E50A0EF4E0950B2EF7
:1012A000BA2FA02D0B01B90190010C01CA01A001B8
:1012B0001124FF27591B99F0593F50F4503E68F113
:1012C0001A16F040A22F232F342F4427585FF3CF54
:1012D000469537952795A795F0405395C9F77EF425
:1012E0001F16BA0B620B730B840BBAF09150A1F06E
:1012F000FF0FBB1F661F771F881FC2F70EC0BA0FF4
:10130000621F731F841F48F4879577956795B7957B
:10131000F7959E3F08F0B0CF9395880F08F0992776
:10132000EE0F9795879508950E94770A08F481E05B
:1013300008950E94AD090C94B20A0E94AB0A58F0BD
:101340000E94A40A40F029F45F3F29F00C949B0A04
:1013500051110C94E60A0C94A10A0E94C30A68F386
:101360009923B1F3552391F3951B550BBB27AA275E
:1013700062177307840738F09F5F5F4F220F331F98
:10138000441FAA1FA9F335D00E2E3AF0E0E832D060
:1013900091505040E695001CCAF72BD0FE2F29D063
:1013A000660F771F881FBB1F261737074807AB0735
:1013B000B0E809F0BB0B802DBF01FF2793585F4FAA
:1013C0003AF09E3F510578F00C949B0A0C94E60A83
:1013D0005F3FE4F3983ED4F3869577956795B7958C
:1013E000F7959F5FC9F7880F911D9695879597F997
:1013F0000895E1E0660F771F881FBB1F6217730710
:101400008407BA0720F0621B730B840BBA0BEE1F24
:1014100088F7E09508950E94CB0A88F09F5798F0CE
:10142000B92F9927B751B0F0E1F0660F771F881FE9
:10143000991F1AF0BA95C9F714C0B13091F00E9403
:10144000E50AB1E008950C94E50A672F782F882704
:10145000B85F39F0B93FCCF3869577956795B3952A
:10146000D9F73EF490958095709561957F4F8F4F99
:101470009F4F0895E89409C097FB3EF4909580959E
:10148000709561957F4F8F4F9F4F9923A9F0F92F4A
:1014900096E9BB279395F695879577956795B795C8
:1014A000F111F8CFFAF4BB0F11F460FF1BC06F5FAE
:1014B0007F4F8F4F9F4F16C0882311F096E911C0C0
:1014C000772321F09EE8872F762F05C0662371F0E1
:1014D00096E8862F70E060E02AF09A95660F771FF5
:1014E000881FDAF7880F9695879597F90895990FD1
:1014F0000008550FAA0BE0E8FEEF16161706E807DE
:10150000F907C0F012161306E407F50798F0621BFE
:10151000730B840B950B39F40A2661F0232B242BD3
:10152000252B21F408950A2609F4A140A6958FEFF2
:10153000811D811D089597F99F6780E870E060E044
:1015400008959FEF80EC089500240A94161617065C
:1015500018060906089500240A94121613061406A4
:1015600005060895092E0394000C11F4882352F007
:10157000BB0F40F4BF2B11F460FF04C06F5F7F4FBF
:101580008F4F9F4F089557FD9058440F551F59F0A6
:101590005F3F71F04795880F97FB991F61F09F3F60
:1015A00079F087950895121613061406551FF2CF89
:1015B0004695F1DF08C0161617061806991FF1CFD9
:1015C00086957105610508940895E894BB27662700
:1015D0007727CB0197F908950E94770A08F48FEFD7
:1015E00008950E94040B0C94B20A0E94A40A38F0D9
:1015F0000E94AB0A20F0952311F00C949B0A0C94E6
:10160000A10A11240C94E60A0E94C30A70F3959F64
:10161000C1F3950F50E0551F629FF001729FBB27E9
:10162000F00DB11D639FAA27F00DB11DAA1F649F85
:101630006627B00DA11D661F829F2227B00DA11D38
:10164000621F739FB00DA11D621F839FA00D611DBE
:10165000221F749F3327A00D611D231F849F600DDF
:10166000211D822F762F6A2F11249F5750409AF008
:10167000F1F088234AF0EE0FFF1FBB1F661F771F94
:10168000881F91505040A9F79E3F510580F00C945F
:101690009B0A0C94E60A5F3FE4F3983ED4F38695E8
:1016A00077956795B795F795E7959F5FC1F7FE2BFF
:1016B000880F911D9695879597F908950E94770A4E
:1016C000880B990B0895A1E21A2EAA1BBB1BFD01E2
:1016D0000DC0AA1FBB1FEE1FFF1FA217B307E40711
:1016E000F50720F0A21BB30BE40BF50B661F771F69
:1016F000881F991F1A9469F7609570958095909549
:101700009B01AC01BD01CF010895EE0FFF1F0590B5
:0A171000F491E02D0994F894FFCF46
:10171A000000000023018703C4007001F500D30014
:10172A00E700000000005D058703B503B4036E619E
:10173A006E00696E66006F7666004269656E766550
:10174A006E69646F00477275706F2032342055508D
:10175A00534F0048554D3D0054454D503D0025001E
:02176A0043003A
:00000001FF
